:100000000C9406010C942E010C942E010C942E01DC
:100010000C942E010C942E010C942E010C942E01A4
:100020000C942E010C942E010C942E010C942E0194
:100030000C942E010C942E010C942E010C942E0184
:100040000C94E0040C942E010C94C9030C94A303AB
:100050000C942E010C942E010C942E010C942E0164
:100060000C94A1050C942E015A0D5F0D620D6F0DBD
:10007000740D7A0D810DA60DA10E8D0D910D970DAC
:100080009F0DDF0EA90DB00DBC0DC20DC80DCE0D1C
:10009000D40DD80DE50D4B0DF90DFB0DFD0D050E25
:1000A000B70ED70E0E0E150E1E0E5C0E700E860EBF
:1000B000A40E370E460E4E0EB50D30003000300047
:1000C000202020204D4943524F20554E4F202020C4
:1000D0000000000000240027002A00000000002586
:1000E0000028002B00000000002300260029000447
:1000F00004040404040404020202020202030303CF
:1001000003030301020408102040800102040810C8
:100110002001020408102000000008000201000075
:100120000304070000000000000000544F5A414C37
:100130004153480059414E47492020004B4F275218
:100140004953483A2000202020206F6B0059756BDE
:100150006C6173682E2E2E006B7574696C6D6F71F7
:1001600064612E2E2E00204D61276C756D6F746CAE
:1001700061720059756B6C6173682E2E2E00202001
:1001800020206F6B0030005361716C6173682E2EFC
:100190002E005341514C41534820003F20004E4F08
:1001A0004D41274C554D204F504B4F443A005A4635
:1001B0003A203078005374656B206B6F277273613F
:1001C000746B696368693A203078004869736F62BC
:1001D0006C61676963683A20307800422072656715
:1001E00069737465723A20307800412072656769DE
:1001F000737465723A20307800495348474120545F
:1002000055534849524953480000960F11241FBEC8
:10021000CFEFD8E0DEBFCDBF11E0A0E0B1E0EAEC67
:10022000F2E202C005900D92A836B107D9F727E097
:10023000A8E6B1E001C01D92A435B207E1F711E0D4
:10024000C6E0D1E004C02197FE010E945D11C530D7
:10025000D107C9F70E949D0B0C9463110C94000008
:10026000CF92DF92EF92FF920F931F93CF93DF9382
:100270006C017A018B01C0E0D0E0CE15DF0581F082
:10028000D8016D918D01D601ED91FC910190F08125
:10029000E02DC6010995892B11F02196EECF7E0144
:1002A000C701DF91CF911F910F91FF90EF90DF90E9
:1002B000CF900895FC01538D448D252F30E0842F7D
:1002C00090E0821B930B541710F0CF96089501977E
:1002D0000895FC01918D828D981761F0828DDF0168
:1002E000A80FB11D5D968C91928D9F5F9F73928F29
:1002F00090E008958FEF9FEF0895FC01918D828D1E
:10030000981731F0828DE80FF11D858D90E00895EA
:100310008FEF9FEF0895FC01918D228D892F90E042
:10032000805C9F4F821B91098F739927089580E30A
:1003300096E00E948B0121E0892B09F420E0822FB6
:100340000895FC01848DDF01A80FB11DA35ABF4F92
:100350002C91848D90E001968F739927848FA689C4
:10036000B7892C93A089B1898C91837080648C9318
:10037000938D848D981306C00288F389E02D8081C7
:100380008F7D80830895EF92FF920F931F93CF93F9
:10039000DF93EC0181E0888F9B8D8C8D981305C0D5
:1003A000E889F989808185FD26C0F62E0B8D10E045
:1003B0000F5F1F4F0F731127E02E8C8DE8120CC0BA
:1003C0000FB607FCFACFE889F989808185FFF5CF60
:1003D000CE010E94A101F1CF8B8DFE01E80FF11D2E
:1003E000E35AFF4FF0829FB7F8940B8FEA89FB899D
:1003F000808180620AC09FB7F894EE89FF8960838C
:10040000E889F98980818370806480839FBF81E05F
:1004100090E0DF91CF911F910F91FF90EF900895A1
:10042000CF93DF93EC01888D8823C9F0EA89FB899B
:10043000808185FD05C0A889B9898C9186FD0FC092
:100440000FB607FCF5CF808185FFF2CFA889B98967
:100450008C9185FFEDCFCE010E94A101E7CFDF9106
:10046000CF91089580E090E0892B29F00E949701B8
:1004700081110C9400000895833081F028F48130BC
:1004800099F08230A1F008958730A9F08830B9F052
:100490008430D1F4809180008F7D03C080918000F2
:1004A0008F7780938000089584B58F7702C084B5DC
:1004B0008F7D84BD08958091B0008F7703C08091B7
:1004C000B0008F7D8093B00008953FB7F89480917D
:1004D0001F0290912002A0912102B091220226B524
:1004E000A89B05C02F3F19F00196A11DB11D3FBF6C
:1004F000BA2FA92F982F8827820F911DA11DB11DFA
:10050000BC01CD0142E0660F771F881F991F4A95F5
:10051000D1F708954091D001262F30E0240F311DEE
:1005200021323105DCF42091F4012430C9F4FC01BE
:1005300080E090E0861758F43091D0012191DC01E1
:10054000A055BE4FA30FB11D2C930196F3CF809100
:10055000D001680F6093D00180E0089581E0089594
:1005600082E00895089508950895E0912F068091FE
:100570002E06E81730F4F0E0E657FE4F808190E059
:1005800008958FEF9FEF089590912F0680912E068A
:10059000981750F4E92FF0E0E657FE4F208130E045
:1005A0009F5F90932F0602C02FEF3FEFC901089580
:1005B00080912E0690E020912F06821B91090895CC
:1005C000CF92DF92EF92FF920F931F93CF93DF931F
:1005D0007C01CB018A0120918901222389F0EB0162
:1005E0006B01C40ED51ECC15DD0569F06991D701EC
:1005F000ED91FC910190F081E02DC7010995F3CFB9
:10060000642F0E948A02C801DF91CF911F910F9140
:10061000FF90EF90DF90CF900895CF93DF931F92DC
:10062000CDB7DEB76983209189012223D1F02091D3
:100630002C06203240F021E030E0FC01338322839D
:1006400080E090E015C080912D06E82FF0E0E7599A
:10065000FE4F998190838F5F80932D0680932C06A7
:1006600005C061E0CE0101960E948A0281E090E01F
:100670000F90DF91CF910895089580E090E0089564
:100680008F929F92AF92BF92EF92FF920F931F9320
:10069000CF93DF93CDB7DEB7A1970FB6F894DEBF47
:1006A0000FBECDBF7C01FA01CB0119A2223008F4A4
:1006B0002AE08E010F5D1F4F822E912CA12CB12CB0
:1006C000BF01A50194010E942C11F901CA0101503A
:1006D00011096A3014F4605D01C0695CD8016C9343
:1006E000232B242B252B61F70115110591F0F8011F
:1006F00001900020E9F73197AF01401B510BD70162
:10070000ED91FC910280F381E02DB801C7010995BC
:1007100002C080E090E0A1960FB6F894DEBF0FBE55
:10072000CDBFDF91CF911F910F91FF90EF90BF90C0
:10073000AF909F908F900895DC01ED91FC91019016
:10074000F081E02D09941F920F920FB60F921124A1
:100750002F933F934F935F936F937F938F939F93C9
:10076000AF93BF93EF93FF9380E396E00E94A101C4
:10077000FF91EF91BF91AF919F918F917F916F9179
:100780005F914F913F912F910F900FBE0F901F904F
:1007900018951F920F920FB60F9211242F938F93DB
:1007A0009F93EF93FF93E0914006F0914106808183
:1007B000E0914606F091470682FD12C0908180913B
:1007C00049068F5F8F7320914A06821751F0E0919E
:1007D0004906F0E0E05DF94F958F8093490601C02E
:1007E0008081FF91EF919F918F912F910F900FBE7C
:1007F0000F901F901895CF93DF93282F30E0F901C9
:10080000E95EFE4F8491F901ED5FFE4FD491F9014D
:10081000E151FF4FC491CC2391F081110E943C0221
:10082000EC2FF0E0EE0FFF1FEB51FF4FA591B491BD
:10083000EC91ED2381E090E021F480E002C080E0C3
:1008400090E0DF91CF910895862F0C94FB031F93C6
:10085000CF93DF93282F30E0F901E95EFE4F8491BA
:10086000F901ED5FFE4FD491F901E151FF4FC491C1
:10087000CC23C1F0162F81110E943C02EC2FF0E036
:10088000EE0FFF1FE552FF4FA591B4919FB7F8946B
:10089000111104C08C91D095D82302C0EC91DE2BAD
:1008A000DC939FBFDF91CF911F910895862F642F16
:1008B0000C942704CF93DF9390E0FC01ED5FFE4F93
:1008C0002491FC01E151FF4F8491882361F190E074
:1008D000880F991FFC01EF52FF4FC591D491FC0185
:1008E000E552FF4FA591B491611109C09FB7F894EB
:1008F0008881209582238883EC912E230BC062305F
:1009000061F49FB7F8948881322F309583238883D0
:10091000EC912E2B2C939FBF06C08FB7F894E881E3
:100920002E2B28838FBFDF91CF910895862F642FC0
:100930000C945A048F929F92AF92BF92CF92DF9203
:10094000EF92FF926B017C010E9465024B015C01FA
:10095000C114D104E104F104F1F00E946502DC014C
:10096000CB0188199909AA09BB09883E9340A105C2
:10097000B10570F321E0C21AD108E108F10888EE50
:10098000880E83E0981EA11CB11CC114D104E1049F
:10099000F10419F7DDCFFF90EF90DF90CF90BF907B
:1009A000AF909F908F9008952FB7F89460911B029D
:1009B00070911C0280911D0290911E022FBF08951C
:1009C0001F920F920FB60F9211242F933F938F9384
:1009D0009F93AF93BF9380911B0290911C02A091B3
:1009E0001D02B0911E0230911A0223E0230F2D3711
:1009F00020F40196A11DB11D05C026E8230F029623
:100A0000A11DB11D20931A0280931B0290931C021A
:100A1000A0931D02B0931E0280911F0290912002AC
:100A2000A0912102B09122020196A11DB11D8093D7
:100A30001F0290932002A0932102B0932202BF9143
:100A4000AF919F918F913F912F910F900FBE0F907B
:100A50001F9018951092F40181E08093F601109296
:100A6000F50161E082E10E94270461E083E10E94D8
:100A70002704E9EBF0E080818E7F808380818D7F89
:100A8000808388E48093B80085E48093BC00089557
:100A9000CF93DF9391E09093AF018823B9F0C09199
:100AA000B800D091BA008091BC008A7B8093BC00D2
:100AB00060E082E10E94270460E083E10E94270455
:100AC0000E942A05D093BA00C093B800DF91CF915D
:100AD000089585ED8093BC008091AB019091AC01AD
:100AE000A091AD01B091AE010796A11DB11D23E00B
:100AF000B695A795979587952A95D1F72091BC0033
:100B000024FF1CC04091AB015091AC016091AD013C
:100B10007091AE01452B462B472B81F30097A10521
:100B2000B10541F02AE22A95F1F700C00197A10929
:100B3000B109E4CF8091AA010C9448051092F40108
:100B400008951F920F920FB60F9211242F933F9387
:100B50004F935F936F937F938F939F93AF93BF93C5
:100B6000EF93FF938091B900887F803609F49CC091
:100B700068F5883209F45BC090F4803109F454C000
:100B800038F4882309F4F6C0883009F44DC0F6C063
:100B9000883109F44CC0803209F45DC0EFC0803464
:100BA00009F468C048F4803309F455C0883309F06B
:100BB000E5C08093F301D8C0803509F44FC0883573
:100BC00009F45DC0883409F0D9C0D6C0883909F469
:100BD000C7C0A8F4883709F467C038F4883609F428
:100BE00063C0803709F460C0C9C0883809F4B8C050
:100BF000803909F45FC0803809F0C0C05BC0803B19
:100C000009F486C038F4803A09F466C0883A09F4D9
:100C10007FC0B4C0803C09F4A7C0883C09F4A4C0DC
:100C2000883B09F48AC0AAC08091190210C0909133
:100C3000180280911702981770F5E091180281E070
:100C40008E0F80931802F0E0E950FE4F8081809370
:100C5000BB0085EC86C08093F3018EC0E091180242
:100C600081E08E0F809318028091BB00F0E0E95084
:100C7000FE4F808390911802809117026EC0E09120
:100C8000180281E08E0F809318028091BB00F0E083
:100C9000E950FE4F80838091F60181116DC081E0A3
:100CA0008093F50184EA61C083E08093F40110929F
:100CB000F201CFCF8091F201803208F051C0E09173
:100CC000F20181E08E0F8093F2018091BB00F0E091
:100CD000EE52FE4F8083BDCF85EC8093BC00109216
:100CE000F4018091F201803230F4E091F201F0E001
:100CF000EE52FE4F10826091F20170E0E091280602
:100D0000F091290682ED91E009951092F20136C02A
:100D100084E08093F4011092D1011092D001E0910F
:100D20002A06F0912B0609958091D001811105C00A
:100D300081E08093D0011092B001E091D10181E077
:100D40008E0F8093D101F0E0E055FE4F80818093BB
:100D5000BB009091D1018091D001981708F479CF10
:100D600085E88093BC000AC085EC8093BC0010929B
:100D7000F40104C01092F3010E946905FF91EF9104
:100D8000BF91AF919F918F917F916F915F914F91A3
:100D90003F912F910F900FBE0F901F901895CF92FB
:100DA000DF92EF92FF920F931F93CF93DF93FC019B
:100DB000C48121E020938901C093680110922D061F
:100DC00010922C068385682B8DEC96E00E940D0313
:100DD000D0912C06D13208F0BAC00E9465026B0196
:100DE0007C018091F401882311F18091AB019091F5
:100DF000AC01A091AD01B091AE01892B8A2B8B2B58
:100E000081F30E9465020091AB011091AC01209129
:100E1000AD013091AE01DC01CB018C199D09AE0909
:100E2000BF09081719072A073B07D8F681C082E0D7
:100E30008093F40181E08093F6018FEF8093F301BA
:100E400010921802D0931702A9E6B1E0E7EFF1E0A3
:100E500080E0D81721F09D9191938F5FFACF109287
:100E6000190280911902CC0FC82BC09319028091EE
:100E7000F501813089F51092F5010E9465026B0140
:100E80007C01809119028093BB008091AB0190910D
:100E9000AC01A091AD01B091AE01892B8A2B8B2BB7
:100EA000A9F00E9465020091AB011091AC01209164
:100EB000AD013091AE01DC01CB018C199D09AE0969
:100EC000BF09081719072A073B0790F18091BC005A
:100ED00083FDD7CF85EC01C085EE8093BC000E94D6
:100EE00065026B017C018091F401823031F58091C3
:100EF000AB019091AC01A091AD01B091AE01892BF5
:100F00008A2B8B2B81F30E9465020091AB0110911B
:100F1000AC012091AD013091AE01DC01CB018C1907
:100F20009D09AE09BF09081719072A073B07D8F61C
:100F30008091AA010E9448050AC08091F3018F3F69
:100F400031F08091F301803211F08091F301109221
:100F50002D0610922C0610928901DF91CF911F91DE
:100F60000F91FF90EF90DF90CF9008950F931F9314
:100F7000CF938C01C62F0E94CF066C2F6460C801EE
:100F80000E94CF066C2F6B7FC8010E94CF0683ECB6
:100F900090E00197F1F7CF911F910F9108950F9372
:100FA0001F93CF938C01C62F607F61600E94B607AC
:100FB00080E1C89FB00111246160C8010E94B6079A
:100FC00081E090E0CF911F910F910895EF92FF92F1
:100FD0000F931F93CF938C010E94F1107C01C0E00E
:100FE000EC2FF0E0EE15FF0548F4E00FF11F6491DF
:100FF00080E396E00E949C03CF5FF2CFCF911F91D8
:101000000F91FF90EF900895EF92FF920F931F932F
:10101000CF938C010E94F1107C01C0E0EC2FF0E036
:10102000EE15FF0548F4E00FF11F649188E497E0A6
:101030000E949C03CF5FF2CFCF911F910F91FF9041
:10104000EF9008950E94C70980EC90E00E94040888
:1010500061E080E00E949B09109225021092230219
:1010600010922702109226028FEF93E090930101D5
:101070008093000110922402E8E2F2E0119286E0EF
:10108000E832F807D9F70895CF93C82F803120F4BC
:101090008AEB90E00E9404084C2F50E060E070E082
:1010A00020E188E497E00E94400360E288E497E052
:1010B000CF910C949C03EF92FF920F931F93CF93C9
:1010C000DF93EC010E94C709ED2EFF241C2F8FE057
:1010D0008E1520F08EEB90E00E940408A70160E0DE
:1010E00070E020E188E497E00E944003103120F492
:1010F0008CEB90E00E940408412F50E060E070E02B
:1011000020E188E497E00E9440036AE388E497E0E6
:101110000E949C038E01085D1D4F2496C8018852D1
:1011200092408C179D0730F4F80181918F010E9445
:101130004408F4CF61E080E0DF91CF911F910F91DF
:10114000FF90EF900C949B090F931F93CF93DF9325
:101150000CE010E0C0E0D0E00E94CF098823E1F36A
:10116000823579F18B3479F18C3479F18D3479F1E0
:101170008A3314F440ED01C049EC480F842F90E00D
:101180000115110531F0002E02C0880F991F0A9435
:10119000E2F7C82BD92B50E060E070E020E188E452
:1011A00097E00E944003045011090C3F8FEF18078D
:1011B00099F668EC70E080E090E00E949A04CE011D
:1011C00008C08FEF05C08AEF03C08DEF01C08CEF20
:1011D0009FEFDF91CF911F910F91089520912602EB
:1011E00030912702F901E85DFD4F80812F5F3F4F6D
:1011F00030932702209326020895CF930E94EE0891
:10120000C82F0E94EE082C2F30E0322F2227A90190
:10121000482BCA01CF91089596E0899FD0011124EF
:10122000A752B94F90967C936E935F9791E09196F9
:101230009C93919790914507E0914607F09147075D
:10124000992339F0309751F0811108C08091F5064B
:1012500004C0309719F05C968C91099408950F930F
:101260001F93CF93DF93C82FD62F86E0C89FF0013E
:101270001124E752F94F11A2878D90A18130910579
:10128000D9F040F082309105A9F10397F1F560E0C3
:1012900070E034C06623C9F161E070E08C2F0E94D9
:1012A0000C090E94D4046093310770933207809335
:1012B00033079093340729C00E94D404009131076A
:1012C000109132072091330730913407AB01BC01F4
:1012D000401B510B620B730B8091430790914407A5
:1012E000A0E0B0E084179507A607B70718F462E0FE
:1012F00070E004C0D11109C063E070E08C2FDF9171
:10130000CF911F910F910C940C09DF91CF911F91F8
:101310000F910895CF93C82F682F607F88E497E0DE
:101320000E94B60780E1C89FB001112488E497E0CD
:10133000CF910C94B607CF93DF93CDB7DEB7289744
:101340000FB6F894DEBF0FBECDBF98E0E3E2F1E048
:10135000DE01119601900D929A95E1F79091510757
:10136000961710F46FEF690FFE013196E60FF11D2D
:10137000E60FF11D9081890F806828960FB6F894CA
:10138000DEBF0FBECDBFDF91CF910C948A0981E003
:101390000E948A098BE39FE10197F1F708956F920C
:1013A0007F928F929F92AF92BF92CF92DF92EF92F5
:1013B000FF920F931F93CF93DF9381E080934507B4
:1013C0000E94D40400913507109136072091370709
:1013D00030913807AB01BC01401B510B620B730B02
:1013E0008091410790914207A0E0B0E084179507F3
:1013F000A607B70708F0E6C0C0E080913F07C8170E
:1014000030F0712C812C912C5401839440C0E091D8
:101410003B07F0913C07EC0FF11D62E080810E94D8
:101420005A04CF5FEACFC62DD0E0E0913B07F091A0
:101430003C07EC0FFD1F80810E94FB032496CC0F1C
:10144000DD1FC752D94F892B09F04BC08881998184
:101450008C299D2999838883639480913F0768161E
:1014600010F3E0913D07F0913E07E00FF11F61E0BE
:1014700080810E94270480913D0790913E07FC01E6
:10148000E00FF11F60E080810E945A047394809104
:101490004007781658F5072D10E0E0913D07F091D0
:1014A0003E07E00FF11F61E080810E945A04E09145
:1014B0003D07F0913E07E00FF11F60E080810E9440
:1014C0002704D501C401072C04C0880F991FAA1F47
:1014D000BB1F0A94D2F76C017C01E094F094612C5C
:1014E000BCCF888199818E219F21B4CF29EDE22E36
:1014F00026E0F22EF7018FEF9FEF278D30A1232BEF
:1015000021F4148E968F858F11A2369627E0E5314F
:10151000F20799F7C0E096E0D92E80913F07C817EF
:1015200058F5D0E00C2F10E0000F111F0F51194F8C
:1015300020914007D217F0F4F801408151810D2E1F
:1015400002C0569547950A94E2F7642F6170C29FD6
:10155000900111242D0F311DE9EDF6E080E0A58DFD
:10156000B68D2A173B0709F44DC08F5F36968A3037
:10157000B1F72CC0CF5FD1CFC0E0F70181A18111BD
:10158000C1E0F6E0EF0EF11C25E1E21627E0F206DD
:10159000A1F70E94D40460933507709336078093B7
:1015A000370790933807CC2369F08091FA06882397
:1015B00049F08091F8069091F906019719F480910D
:1015C000F5062AC01092450780E026C040FF1CC0E7
:1015D000E9EDF6E080E090E0448D411117C0E09124
:1015E0003907F0913A07E20FF31F4081D89EF001CE
:1015F000D99EF00D1124E752F94F448F368F258F75
:1016000010A2178E0E942F09DF5F92CF01963696A7
:101610008A30910509F7F8CFDF91CF911F910F9193
:10162000FF90EF90DF90CF90BF90AF909F908F9002
:101630007F906F900895CF93DF9310922F061092B2
:101640002E0610922D0610922C060E942A0582EB7F
:1016500092E090932B0680932A0683EB92E090937E
:1016600029068093280610924D07809151078230F9
:1016700018F098E090934D0790915207992339F014
:10168000813029F480914D07846080934D0762E397
:1016900070E080E090E00E949A046091530788E433
:1016A00097E00E94CF0668EE73E080E090E00E9431
:1016B0009A0460E388E497E00E94B607CBE4D6E49E
:1016C000CE010197F1F760E388E497E00E94B60746
:1016D0002197F1F760E388E497E00E94B60783E57D
:1016E00092E00197F1F760E288E497E00E94B60784
:1016F00080914D0780620E948A0984E080934E07A2
:101700008CE00E948A090E94C70982E080934F07FB
:1017100086E00E948A0982E00E948A098BE39FE1A9
:101720000197F1F7DF91CF91089542E050E065E62F
:1017300071E080E396E00C943001789484B5826087
:1017400084BD84B5816084BD85B5826085BD85B565
:10175000816085BD80916E00816080936E001092E3
:10176000810080918100826080938100809181005E
:1017700081608093810080918000816080938000EF
:101780008091B10084608093B1008091B00081604D
:101790008093B00080917A00846080937A00809179
:1017A0007A00826080937A0080917A0081608093D1
:1017B0007A0080917A00806880937A001092C1004C
:1017C000E0914006F091410682E08083E0913C0682
:1017D000F0913D061082E0913E06F0913F068FECBD
:1017E000808310924806E0914406F091450686E019
:1017F0008083E0914206F09143068081806180837E
:10180000E0914206F0914306808188608083E091F8
:101810004206F0914306808180688083E091420611
:10182000F091430680818F7D80830E941B0B809105
:101830004F078E7F80934F0784600E948A098091B2
:101840004E07982F916090934E0789600E948A09F5
:101850000E94220808E216E00E94A408EC016AE354
:1018600088E497E00E949C03CC3F2FEFD20709F455
:101870004EC0E0F4CA3F5FEFD507D1F1CB3F8FEF09
:10188000D80709F001C30E94C70984E391E00E94D0
:10189000040862E083E00E949B096CE271E080E052
:1018A00090E00E949A040E942208D6CFCE3F9FEF7C
:1018B000D90709F4ACC008F0DEC00E94C70983E76D
:1018C00091E00E9404086CE271E080E090E00E94E8
:1018D0009A040E94C70986E691E00E94040861E02C
:1018E00080E00E949B0988E591E00E94040818C0EE
:1018F0000E94C7098BE291E00E9404086CE271E04B
:1019000080E090E00E949A040E94C709A5CF0E943F
:10191000C7098CE391E00E9404080E94A408FBC25E
:1019200080E396E00E948B01892BD1F30E94C709C6
:101930008DE491E00E940408C8E2D2E07E010E949A
:10194000D404609338067093390680933A069093D6
:101950003B0680E396E00E94690197FFDFC20E9488
:10196000D4048090380690903906A0903A06B09042
:101970003B06DC01CB0188199909AA09BB098090B3
:10198000340690903506A0903606B090370688153C
:101990009905AA05BB05E8F2E7E2F2E020E030E0B5
:1019A00081818A3314F4805301C08753818320FDE1
:1019B00004C08295807F818304C09081892B8083BD
:1019C00011822F5F3F4F3196211544E0340741F7D4
:1019D00080E090E0AC014F5F5F4F80FD0FC000974B
:1019E00069F068819C0197FD9A0135952795885D7E
:1019F0009D4FFC01E21BF30B60831882CA01219604
:101A0000811554E0950731F786E491E02DC00E94DE
:101A1000C70982E991E00E9404086CE271E080E06D
:101A200090E00E949A040E94C70987E891E00E9412
:101A30000408C8E2D2E07E018881803120F485E884
:101A400091E00E94E6072196F701408150E060E0B6
:101A500070E020E180E396E00E944003F6E0C832A7
:101A6000DF0749F78EE791E00E94040861E080E01B
:101A70000E949B09F1CE0E94C70989EF91E00E9464
:101A8000040862E083E00E949B096CE271E080E060
:101A900090E00E949A040E94C7090E94EE08C82F95
:101AA00090E08932910508F0DDC1FC01EC5CFF4F4C
:101AB0000C945D111092270210922602CDCE0E9446
:101AC000EE088FC00E94FD0820912302885D9D4F83
:101AD000FC01E20FF11D908190932502E7C09091E7
:101AE000250290932302E2C00E94EE089091250205
:101AF000890F77C00E94EE0890912502981B892FCC
:101B000070C00E94FD0820912302885D9D4FFC015A
:101B1000E20FF11D80912502E1C0809123028F5FC9
:101B200003C0809123028150809323025CC00E94F5
:101B3000EE0891E020912502281357C057C08091EC
:101B400024028111FEC00E94FD08A7CF0E94CF0988
:101B500048C00E94CF09809325028823D1F39DCFEE
:101B60006091250288E497E004C06091250280E33B
:101B700096E00E949C0391CF0E94EE08909125026E
:101B8000892331C00E94EE0890912502892329C043
:101B90000E94EE0890912502892B23C00E94EE0836
:101BA0009091250289271DC00E94EE08809519C0DA
:101BB0000E94EE082091250230E0A90102C0440FE6
:101BC000551F8A95E2F7CA010CC00E94EE082091C9
:101BD000250230E0F90102C0F595E7958A95E2F714
:101BE000CF018093250291E0811190E0909324022F
:101BF00054CF88E110C08CE10EC080914E07982F21
:101C0000916090934E07896006C080914E078E7F49
:101C100080934E0788600E948A093FCF609123021B
:101C2000809125020E949B0938CF0E94EE08682F00
:101C300070E080E090E00E949A042FCF0E94EE08AE
:101C4000C82ED12CE12CF12CC114D104E104F104F3
:101C500041F00E949A10A70196010E94FA106B01B0
:101C60007C01C092250281E0C11023C021C00E94E6
:101C7000FD08885D9D4FFC01408150E060E070E010
:101C80002AE088E497E00E94400307CF0E94FD0805
:101C9000FC01E85DFD4F90819F5F07C00E94FD0839
:101CA000FC01E85DFD4F90819150908381E091119E
:101CB00080E080932402F1CE809100019091010197
:101CC000FC01E85DFD4F209125022083029790934F
:101CD0000101809300013197809123028083DDCE42
:101CE0008091000190910101FC01E85DFD4F21818F
:101CF0002093230202969093010180930001FC013E
:101D0000E85DFD4F808180932502C7CE20910001C0
:101D1000309101018091260290912702F901E85D3E
:101D2000FD4F42E0480F40832250310930930101BA
:101D300020930001319724E0969587952A95E1F745
:101D400080830E94FD080EC08091000190910101E6
:101D500002969093010180930001FC01E85DFD4F24
:101D6000808190E0909327028093260296CEC091C6
:101D70002302D0E0809125028770F8E08F9FC00198
:101D8000112480640E948A09C85DDD4FE12CF12C8A
:101D9000699188E497E00E94CF072FEFE21AF20AD8
:101DA00048E0E416F104A1F70E941B0B76CE0E94D6
:101DB000EE08682F88E497E00E94CF076ECE8AEE87
:101DC00091E00E94E6074091250250E060E070E05B
:101DD00020E180E396E00E9440030E94950B8BED8A
:101DE00091E00E94E6074091230250E060E070E03D
:101DF00020E180E396E00E9440030E94950B8BEC6B
:101E000091E00E94E607409126025091270260E08F
:101E100070E020E180E396E00E9440030E94950B71
:101E200085EB91E00E94E60740910001509101018D
:101E300060E070E020E180E396E00E9440030E94B1
:101E4000950B8EEA91E00E94E6074091240250E053
:101E500060E070E020E180E396E00E9440030E9491
:101E6000950B1BCE0E94C7098EE991E00E940408E1
:101E700061E080E00E949B098C2F0E9444088BE95E
:101E800091E00E940408E8CCCE01885D9D4F7C0162
:101E90006E0194E0C90ED11CC701885292408C1586
:101EA0009D0590F50E94CF098823E1F38A3314F051
:101EB00049EC01C040ED480FE0E14E9F5001112474
:101EC00050E060E070E020E188E497E00E94400389
:101ED0000E94CF098823E1F38A3314F440ED01C056
:101EE00049EC480FA42A50E060E070E020E188E46B
:101EF00097E00E944003F701A1927F0160E288E42D
:101F000097E00E949C03C8CF6CE271E080E090E013
:101F10000E949A04CE010E945B089ECCF701819337
:101F20007F010E171F0709F00ACD36CD1092330638
:101F30001092320688EE93E0A0E0B0E08093340681
:101F400090933506A0933606B09337062FE231E022
:101F5000309331062093300625EC30E030933D0677
:101F600020933C0624EC30E030933F0620933E065D
:101F700020EC30E0309341062093400621EC30E025
:101F8000309343062093420622EC30E0309345061E
:101F90002093440626EC30E0309347062093460613
:101FA0001092490610924A0610924B0610924C0667
:101FB0001092D0061092CF068093D1069093D2064D
:101FC000A093D306B093D40681E491E09093CE061B
:101FD0008093CD0610924B0710924A078DE591E051
:101FE000909349078093480787E280934C0780E1EC
:101FF0008093500782E0809351071092520788E047
:10200000809353071092DB061092DF061092DE06D3
:102010001092E00683E591E09093DA068093D9066A
:10202000E9EDF6E085E197E0148E10A2178E11A27B
:1020300036968E179F07C1F786E091E090933C0794
:1020400080933B0782E091E090933E0780933D07A9
:1020500085E080933F0784E0809340078BE091E028
:1020600090933A07809339078AE090E09093420773
:102070008093410784EF91E0909344078093430756
:1020800010924707109246071092350710923607B4
:1020900010923707109238071092450708958F92D3
:1020A0009F92AF92BF92CF92DF92EF92FF92CF9327
:1020B000DF93EC01688179818A819B8161157105CB
:1020C0008105910521F464E279ED8BE597E02DE13E
:1020D00033EF41E050E00E94FA1049015A019B01A0
:1020E000AC01A7EAB1E40E9419116B017C01ACEECE
:1020F000B4EFA50194010E942711DC01CB018C0DE6
:102100009D1DAE1DBF1DB7FF03C00197A109B048BB
:1021100088839983AA83BB83BC01CD019F77DF911C
:10212000CF91FF90EF90DF90CF90BF90AF909F90B6
:102130008F9008958F929F92AF92BF92CF92DF922D
:10214000EF92FF9260911F01709120018091210117
:1021500090912201611571058105910521F464E2D8
:1021600079ED8BE597E02DE133EF41E050E00E94FF
:10217000FA1049015A019B01AC01A7EAB1E40E949F
:1021800019116B017C01ACEEB4EFA50194010E9422
:102190002711DC01CB018C0D9D1DAE1DBF1DB7FFAE
:1021A00003C00197A109B04880931F0190932001BB
:1021B000A0932101B0932201BC01CD019F77FF9034
:1021C000EF90DF90CF90BF90AF909F908F90089549
:1021D00060931F017093200180932101909322014D
:1021E0000895FC0105900020E9F7809590958E0FE9
:1021F0009F1F0895052E97FB1EF400940E94111155
:1022000057FD07D00E942C1107FC03D04EF40C940C
:10221000111150954095309521953F4F4F4F5F4F8D
:10222000089590958095709561957F4F8F4F9F4F42
:1022300008950E944E11A59F900DB49F900DA49FEC
:10224000800D911D11240895B7FF0C9419110E945F
:102250001911821B930B0895A1E21A2EAA1BBB1B16
:10226000FD010DC0AA1FBB1FEE1FFF1FA217B30762
:10227000E407F50720F0A21BB30BE40BF50B661F78
:10228000771F881F991F1A9469F76095709580953C
:1022900090959B01AC01BD01CF010895A29FB001B3
:1022A000B39FC001A39F700D811D1124911DB29F8A
:1022B000700D811D1124911D0895EE0FFF1F0590D3
:0A22C000F491E02D0994F894FFCF8B
:1022CA00FF0308070605090A0B0C0D3031323334B7
:1022DA003536373839414243444546524D4B4C0115
:1022EA00000000000040001400540000000000C379
:1022FA000130015A0110028B0169017D01000000C1
:10230A00000D03E0023D03B402D802C402B5020084
:10231A0000000096045604240400000000CF073091
:08232A00013D033C030D0A0014
:107800000C94343C0C94513C0C94513C0C94513CE1
:107810000C94513C0C94513C0C94513C0C94513CB4
:107820000C94513C0C94513C0C94513C0C94513CA4
:107830000C94513C0C94513C0C94513C0C94513C94
:107840000C94513C0C94513C0C94513C0C94513C84
:107850000C94513C0C94513C0C94513C0C94513C74
:107860000C94513C0C94513C11241FBECFEFD8E036
:10787000DEBFCDBF11E0A0E0B1E0E6ECFDE702C065
:1078800005900D92A230B107D9F722E0A2E0B1E055
:1078900001C01D92AD30B207E1F70E940A3D0C9481
:1078A000E13E0C94003C9091C00095FFFCCF80938A
:1078B000C6000895CF93982F8595859585958595D4
:1078C000805D9F709A3014F0C7E501C0C0E3C90F16
:1078D0000E94533C8C2FCF910C94533CCF92DF925B
:1078E000EF92FF92C12CD12C76018091C00087FDD0
:1078F00013C08FEFC81AD80AE80AF80A81E4C8163C
:1079000082E4D8068FE0E806F10478F3E091020102
:10791000F09103010995E9CF8091C600FF90EF90A7
:10792000DF90CF900895CF930E946E3CC82F0E94A5
:10793000533CC13614F089EA03C0C0331CF080ED1B
:107940008C0F01C08C2FCF910895CF930E94933C50
:10795000C82F0E94933C90E1C99F800D1124CF91C4
:107960000895CF93C82FCC2321F00E946E3CC150C4
:10797000FACFCF910895CF93C82F0E946E3C8032EA
:1079800051F484E10E94533C8C2F0E94533C80E1CF
:10799000CF910C94533C809104018F5F809304013C
:1079A000853031F4E0910201F0910301CF91099407
:1079B000CF9108950E946E3C803231F484E10E94A0
:1079C000533C80E10C94533C809104018F5F809381
:1079D0000401853029F4E0910201F091030109943A
:1079E00008958823B1F02D9A2FEF31EE94E02150C5
:1079F00030409040E1F700C000002D982FEF31EEAD
:107A000094E0215030409040E1F700C000008150E8
:107A1000E8CF08950000E0E0F0E0E49180E1809399
:107A2000C4001092C50088E18093C10086E0809375
:107A3000C2005098589A259A81E00E94F13CFF2498
:107A4000F3940E946E3C803309F442C08133E1F428
:107A50000E946E3C803209F0A6C184E10E94533C32
:107A600081E40E94533C86E50E94533C82E50E94DB
:107A7000533C80E20E94533C89E40E94533C83E5DE
:107A80000E94533C80E586C1803439F40E946E3CEC
:107A90008638F0F00E946E3C1BC08134A1F40E9435
:107AA0006E3C803811F482E003C0813821F481E01B
:107AB0000E94BB3CC6CF823811F480E1F9CF8839EF
:107AC000C9F583E0F5CF823431F484E10E94B13C02
:107AD0000E94DA3CB6CF853411F485E0F7CF982FB9
:107AE0009D7F9035A9F3813599F3853549F40E943E
:107AF0006E3C809306010E946E3C80930701E8CFA4
:107B00008635D1F40E946E3C803389F40E946E3C2D
:107B10000E946E3C182F0E946E3C111102C08EE133
:107B2000C7CF113011F485E9C3CF8FE0C1CF83E017
:107B30000E94B13C80E0BCCF843609F0C6C00E94F0
:107B40006E3C809309020E946E3C809308028091F3
:107B50000C028E7F80930C020E946E3C853429F4C7
:107B600080910C02816080930C0208E011E020916A
:107B7000080230910902C80188509140821793078A
:107B800030F40E946E3CF80181938F01F0CF0E9487
:107B90006E3C803209F007C180910C0220910601F1
:107BA0003091070180FF29C0220F331F3093070156
:107BB00020930601E8E0F1E02091080230910902EB
:107BC000CF01885091408217930708F07CC0F99943
:107BD000FECF809106019091070192BD81BD8191F8
:107BE00080BDFA9AF99A8091060190910701019659
:107BF0009093070180930601DFCF80910701880FE2
:107C0000880B8F2180930B02220F331F30930701C3
:107C1000209306018091080280FF09C0809108022C
:107C20009091090201969093090280930802F894BA
:107C3000F999FECF1127E0910601F0910701C8E004
:107C4000D1E08091080290910902103091F40091E6
:107C5000570001700130D9F303E000935700E89515
:107C60000091570001700130D9F301E100935700F2
:107C7000E895099019900091570001700130D9F3EF
:107C800001E000935700E8951395103498F0112700
:107C90000091570001700130D9F305E000935700BF
:107CA000E8950091570001700130D9F301E100938C
:107CB0005700E8953296029709F0C7CF103011F0BF
:107CC0000296E5CF112484E165C0843709F052C0E3
:107CD0000E946E3C809309020E946E3C80930802D1
:107CE0008091060190910701880F991F90930701D9
:107CF000809306010E946E3C90910C02853411F431
:107D0000916001C09E7F90930C020E946E3C803275
:107D100009F097CE84E10E94533C00E010E080918E
:107D200008029091090208171907B0F580910C021A
:107D300080FF0BC0F999FECF809106019091070159
:107D400092BD81BDF89A80B507C081FD07C0E09162
:107D50000601F091070184910E94533C8091060135
:107D600090910701019690930701809306010F5FA0
:107D70001F4FD5CF8537A1F40E946E3C803299F415
:107D800084E10E94533C8EE10E94533C85E90E94AD
:107D9000533C8FE00E94533C80E10E94533C51CE03
:107DA000863709F4C7CE809104018F5F8093040168
:107DB000853009F046CEE0910201F091030109956A
:067DC00040CEF894FFCF55
:027DC60080003B
:040000030000780081
:00000001FF
